:020000041000EA
:1000000000B5324B212058609868022188439860DF
:10001000D860186158612E4B002199600221596106
:100020000121F02299502B49196001219960352056
:1000300000F044F80222904214D00621196600F024
:1000400034F8196E01211966002018661A6600F04E
:100050002CF8196E196E196E052000F02FF8012189
:100060000842F9D1002199601B49196000215960AB
:100070001A491B48016001219960EB211966A021F2
:10008000196600F012F800219960164914480160C1
:100090000121996001BC002800D000471248134993
:1000A000086003C880F30888084703B5996A0420EC
:1000B0000142FBD001200142F8D103BD02B5186610
:1000C0001866FFF7F2FF186E186E02BD00000240BE
:1000D000000000180000070000035F00212200005C
:1000E000F4000018222000A00001001008ED00E03C
:1000F00000000000000000000000000074B24E7A12
:1001000000200420F7010010C3010010C5010010F9
:10011000C1010010C1010010C1010010C101001097
:10012000C1010010C1010010C1010010C701001081
:10013000C1010010C1010010C9010010CB01001065
:10014000CD010010CD010010CD010010CD01001037
:10015000CD010010CD010010CD010010CD01001027
:10016000CD010010CD010010CD010010CD01001017
:10017000CD010010CD010010CD010010CD01001007
:10018000CD010010CD010010CD010010CD010010F7
:10019000CD010010CD010010CD010010CD010010E7
:1001A000CD010010CD010010CD010010CD010010D7
:1001B000CD010010CD010010CD010010CD010010C7
:1001C00000BE00BE00BE00BE00BE00BEEFF3058054
:1001D000103800BEF2EB887180890010A0890010F1
:1001E0003402001090A31AE700201F49086006C8D7
:1001F00081F3088810471D48006800282FD10DA4FE
:100200000ECC002902D000F012F8F9E71849194A7B
:10021000002000E001C19142FCD1174988471749ED
:1002200088471749884700BEFDE701C901C29A42C5
:10023000FBD37047A0890010C0000020E407002015
:10024000C49000100000042000000420C49000109E
:10025000001004200010042000000000704709482E
:1002600005F00CFE0047000008ED00E0000000D0A3
:10027000E80700209C1D0020A5450010B1110010CA
:10028000CD4600105756000006005250ABB36053E5
:100290005C83001006005250861C03026C83001021
:1002A000060052505422A29D7C830010050052503B
:1002B000DE65F468C4900010F8B5C04606480749EA
:1002C000091A8B10C90FC91810B5491003D0044B77
:1002D000002B00D0984710BDE4070020E407002061
:1002E00000000000054B10B5002B03D00449054861
:1002F00000E000BFFFF7E2FF10BDC04600000000B5
:100300003C0C002010820010F0B5C64698462E4BDB
:100310000E00C1184B1E994100B5050086B040463D
:100320000631170002F010FE01233100424628007A
:10033000009307F0EDF98023FC1C5B020293240379
:10034000FB011C43214B80221C40434692059B022B
:10035000134305931E4B05200493039404F0AEF859
:1003600006F00FFC1B49041C0C9806F0B8FB011C9E
:10037000201C06F0A0FB804606F058FC84B2002347
:10038000002C0ED0200006F0FCFB011C404606F0BD
:100390008CFB8721C90506F0A2FB06F047FCC3B21F
:1003A0001B0224043A001C43310002AB28000294D3
:1003B00007F002FA0123B3402A6813432B6006B00A
:1003C00080BCB846F0BDC0460000E0AFFFFFFF9F15
:1003D00000000E500000204110B507F039FA1F212F
:1003E0001C2002F0B1FD002200211C2002F0C4FDFF
:1003F00000211C2002F0D2FD1F211B2002F0A4FDD1
:10040000002200211B2002F0B7FD00211B2002F07A
:10041000C5FD1F211B2002F097FD002200211B209B
:1004200002F0AAFD00211B2002F0B8FD054B1A685E
:1004300080239B015340E022D2011340024A136003
:1004400010BDC04600C0044000D00440F0B5194EB5
:1004500083B005001849300007F0E2F8174F040098
:10046000002130003E6007F0BDF8154B0100186018
:10047000144B2200386800932B00FFF745FF002241
:100480004821114B5A5200211A605A609A60DA6072
:100490001A615A619A61DA611A625A629A62DA6280
:1004A0001A635A639A63DA631A645A644A32995433
:1004B00003B0F0BD0000205008850010380C00206B
:1004C0006C1D002000504349EC0B002010B50C4976
:1004D0000C4806F0F7FF03210E2002F035FD032142
:1004E0000F2002F031FD002201210E2002F044FD18
:1004F000002201210F2002F03FFD02F041FC10BD5F
:10050000801A06008002002010B5040002F05AFD97
:100510000123D022A3401206936201210022200071
:1005200002F02AFD10BDC046104B70B51A68104B82
:1005300010481C6801232100060010318B40A400E4
:100540004B361419057851680B42FCD1256145786A
:1005500051680B42FCD12561857851680B42FCD172
:10056000033025618642EDD170BDC046380C0020B5
:100570006C1D0020EC0B0020002248210D4B10B513
:100580005A5200211A605A609A60DA601A615A6100
:100590009A61DA611A625A629A62DA621A635A637B
:1005A0009A63DA631A645A640A204A32995403F04F
:1005B00081FA10BDEC0B0020FC21F8B58905051C63
:1005C00006F0CAFA061E18D0BF21304A304B127806
:1005D0000906281C9F5C06F0C7FA2E4C061E4BD15C
:1005E00060742D492774E773281C06F0AFFA0028C1
:1005F00022D067732673A6731EE0FC21281C890590
:1006000006F0BAFA00283FD0204A214B1278FF2189
:100610009F5C2E231F4C8905E754013BE7540233AE
:10062000E654281C06F0A8FA002805D04923E75410
:10063000013BE6540233E654184B26001A68184B67
:100640004B361968012308001030834020008C00CD
:100650001419057851680B42FCD125614578516821
:100660001942FCD12561857851681942FCD10330CB
:1006700025618642EDD1F8BD00232B22A354013A17
:10068000A7540232A354D7E7024CD5E7971D0020A8
:1006900000850010EC0B00200000C0BF380C0020CB
:1006A0006C1D0020F0B5DE4657464E464546614B70
:1006B000E0B598468DB00023039242468946136008
:1006C000414653609360D360136153619361D3617A
:1006D000136253629362D362136353639363D3636E
:1006E00013645364482204008B5200224A330A20C8
:1006F000CA5403F0DFF9A00000194F4A830005AD8A
:10070000C01811181922280006F06CFD287E6B7E97
:1007100084466A7F6B77AB7E6A762A7F2B77EB7C89
:10072000AA769B462A7CAB7C687801920293AA78D1
:100730002B782F892B76EB7DE875A87DAA7562460C
:100740001B0213436A7D0004120618431043EB7822
:100750002A79E97B6C79AE796B752B7D2A756F826E
:10076000019A090212040B431343EA79697C6A7403
:10077000AA7A2E74AE7BAA735A4609060B430693D7
:100780002E4B02999A46002312020A43697B3604D3
:100790003243EC730906EC7A0A436C7346464446CE
:1007A00000279B460590079207E00A20013703F0D7
:1007B00081F901350336192F14D02B78002BF4D092
:1007C00053464A469B5C73703370B370142FECD160
:1007D00043465A460A209A87013503F06BF90336DF
:1007E0000137EAE70398FFF7E7FE154B45461A681D
:1007F000144B4B3518680123010010318B408000E9
:100800001018267851680B42FCD106616678516851
:100810001942FCD10661A67851681942FCD1033413
:100820000661AC42EDD10DB0F0BCBB46B246A94664
:10083000A046F0BDEC0B0020D48300100085001012
:10084000380C00206C1D0020E022F8B5CE4647464B
:100850004B4BD2011B6880B513404A4A0700136016
:1008600080228846D200002106F0B6FC41463800BE
:1008700002F0B2FAD0231B065B68434C9B0657D5A7
:10088000424B434E9946434DD0231B065B685B06A3
:100890004ED504228021404B49001A60384A136823
:1008A0000B42FCD0536864221B041B0C5A433B4987
:1008B00033788A425DD90133DBB23370042B01D91E
:1008C00004233370322003F0F5F833784A461421BC
:1008D0000133280005F09EFA2B0014220521380070
:1008E00002F0C6FA4146380002F076FA2A002C4B94
:1008F00003CB03C21B780521137038002B0028227C
:1009000002F0B6FA4146380002F066FA3278254B1A
:100910009B5C1A021A43A2842622A354FFF704FE0A
:10092000FA2003F0C7F8D0231B065B689B06ABD404
:1009300000234822A35200220A2023606360A360A0
:10094000E36023616361A361E36123626362A36285
:10095000E36223636363A363E363236463644A33EF
:10096000E25403F0A7F8FFF7DFFDC0BCB946B0467C
:10097000F8BD0D498A42A1D8013BDBB233709DE737
:1009800000C0044000D00440EC0B00201082001096
:10099000971D0020701D002000E00440B3BF04003C
:1009A0002482001000850010E68F0100F0B5474654
:1009B000CE4680B583B0804603F068F94E4B802662
:1009C0001A6880239B015340E02247460424D20149
:1009D00013404A4A76014A4D009001914644136003
:1009E0008021454A2C60490013680B42FCD05068B6
:1009F00080B206F0C6F88A21C90506F056F84149CA
:100A000006F06DF8002101C7FA2003F03FF8B74265
:100A1000E6D103F03BF9009B019CC01AA14106F00E
:100A200013F9394906F047F8011C8920C00506F082
:100A300042F84346354F36493860186806F04FF89B
:100A40004646012701C6380005F036FD314A324BD3
:100A500004000D0005F0CBFC0022304B05F0ADFC8E
:100A600005F076FD06F006F929008146294A2000A6
:100A70002B4B05F0BCFC0022284B05F09EFC05F03A
:100A800067FD06F0F7F829008046264A2000264B2D
:100A900005F0ADFC214B002205F08FFC05F058FD60
:100AA00006F0E8F82149051C484606F018F8011C34
:100AB0001F4805F0FAFF1F49041C404606F00FF8D6
:100AC000011C201C05F0F4FF1B49041C281C06F027
:100AD00006F8011C201C05F0E8FF011C306805F039
:100AE000FEFF8023013701C6DB009F42ABD103B07C
:100AF000C0BCB946B046F0BD00C0044000D00440C0
:100B000000E004400000204100247449E801002076
:100B1000C035BE39182D4454FB21194000F88F40D0
:100B2000FB212940D221337F7CD932407975FA3EAE
:100B30006827BA3EBDE00B3E02582E3CF8B5CE46C3
:100B40004746FF23421E05000C00002080B55B00D5
:100B50009A4265D8344BEE18F6008B1918685B681A
:100B6000011C984605F0BBFF4146071C404605F0B6
:100B7000B6FF011C381C05F09BFF06F075F833002A
:100B80000833E318071C18685B68011C994605F0D8
:100B9000A6FF49468046484605F0A1FF011C404695
:100BA00005F086FF06F060F81036A419804620682C
:100BB0006668011C05F093FF311C041C301C05F015
:100BC0008EFF011C201C05F073FF06F04DF8041C7D
:100BD000011C381C05F069FFFC21890505F07FFF29
:100BE0004146061C404605F063FF011C381C05F019
:100BF0005CFF211C05F05CFF011C301C05F05BFF55
:100C0000041C280005F0C2FF011C201C05F050FF49
:100C1000064B196805F063FFEA21890505F05FFFBF
:100C2000C0BCB946B046F8BDFFFFFF1FE801002079
:100C3000F0B5D6464F4646468020C0B5224C00232C
:100C4000A54400220021C00001F022FF04006A46F2
:100C50001E4901F0D1FF200006F0B2FA00239946A8
:100C600080239B0001260027984602AD28686B6808
:100C7000011C9A4605F033FF5146041C504605F00E
:100C80002EFF011C201C05F013FF05F0EDFF391CA1
:100C9000041C05F071FF002807D00D49201C05F049
:100CA0006BFF002801D0B146271C013608354645A8
:100CB000DCD169464846FFF741FF064B9D44E0BC46
:100CC000BA46B146A846F0BDF8EFFFFF640C00201D
:100CD0000000C84208100000F0B5DE4657464E46F8
:100CE0004546D023E0B51B065B6882468B46634CC5
:100CF00085B09B0678D5624B0393D0273F067B686F
:100D000001255B0670D50398FFF750FE8022002175
:100D1000D200504606F060FAFFF78AFF814605F0E0
:100D20009DFF584E00900191574A1421300005F064
:100D300071F8330014220521504602F099F8594603
:100D4000504602F049F84846504905F0FFFE002899
:100D500000D070E04E4B48461B68191C984605F0C1
:100D6000AAFE05F07BFF05F039FC4A4A4A4B05F024
:100D700024FB0022494B05F03AFB05F0E9FB05F0A6
:100D80006DFF05F083FC05F0AFFB060005F094FB5A
:100D90000022424B05F011FB05F0DAFB011C80201C
:100DA000C00506F087F8011C404605F098FE011CBE
:100DB000484605F07AFE3A4B80461B780C213000FD
:100DC000994605F08DF80C3108000C2105F088F8E3
:100DD0004246C8B24946FFF765FC642002F06AFE4D
:100DE0007B685B091D4288D1C82002F063FE0023A6
:100DF0004822A35200220A2023606360A360E360BC
:100E000023616361A361E36123626362A362E362BE
:100E100023636363A363E363236463644A33E25439
:100E200002F048FEFFF780FB05B0F0BCBB46B246BF
:100E3000A946A046F0BD00234822A35200220A2062
:100E400023606360A360E36023616361A361E36186
:100E500023626362A362E36223636363A363E36366
:100E6000236463644A33E25402F024FEFFF75CFB20
:100E70007B685B091D4200D03FE7B5E7EC0B002023
:100E8000640C0020701D00203082001000007041B2
:100E9000E4010020EF39FAFE422EE63F0000284030
:100EA000971D0020E022F0B5CE4647464A4BD201BE
:100EB0001B6880B51340494A0500136080220F006B
:100EC00083B00021D20006F087F93900280001F034
:100ED00083FFD0231B065B689B0653D5404B414ED6
:100EE0009846D0231B065B685B064BD50422802402
:100EF0003D4B64001A60384A13682342FCD05368A3
:100F000064221B041B0C5A43384B914634689A42A6
:100F100053D9FE21201C890505F0CAFD3049041C67
:100F200005F02AFE00283AD04346002030493360BD
:100F3000304C00900191304A1421200004F06AFFE7
:100F4000230014220521280001F092FF3900280017
:100F500001F042FF2200294B03CB03C21B7805217D
:100F6000137028002300282201F082FF3900280096
:100F700001F032FFFA2002F09DFDD0231B065B68D2
:100F80009B06AED403B0C0BCB946B046F0BD99458F
:100F900006D8FE21201C890505F087FD041C34605D
:100FA000174B201C191C994605F0D0FD00280FD0C6
:100FB0004B46002013493360BAE70949201C05F06D
:100FC000DBFD114B0028E2D09945ADD80F4C3460C1
:100FD000201C05F043FEABE700C0044000D00440F5
:100FE0000000E043E401002000E00440B3BF04003F
:100FF00000007C40701D0020408200102482001000
:101000000080CF4300F07940E68F01000080DF438D
:10101000F0B5DE464E465746454689469346802201
:10102000E0B5002185B00700D200484606F0D4F8AC
:101030005B4B00251C004E4601932368002B05D016
:101040002AB20521300001F013FF0835554B043456
:101050009C42F2D1D0255946300001F0BDFE524BE2
:10106000B1460293514B012403932D060DE06B68AA
:101070009B091C4206D1142002F01CFD6B689B09E1
:101080001C4243D0322002F015FD6B685B091C4204
:10109000EDD1142002F00EFD6B685B091C42E6D115
:1010A0006B685B091C4206D10A2002F003FD6B68E5
:1010B0005B091C42F8D0322002F0FCFC012F6AD000
:1010C000022F63D0002F03D159464846FFF704FE94
:1010D0008022002700214846D20006F07DF8019EBC
:1010E0003368002B05D03AB20521484601F0C0FE16
:1010F00008372C4B04369E42F2D15946484601F03F
:101100006BFE0027B3E70A2002F0D4FC6B689B0952
:101110001C42F8D001373220FFB202F0CBFC032F83
:1011200024D9802200214846D20006F055F8062333
:1011300000279846019E43469B00984600239A4606
:101140003B0057469A46B0443368002B05D03AB26C
:101150000521484601F08CFE083704364645F3D198
:1011600057465946484601F037FE8BE7029B039AE3
:10117000DB5D00219846BB00D65880224846D2004D
:1011800006F02AF84346002BD5D1EAE759464846EF
:10119000FFF788FE9CE759464846FFF755FB97E75F
:1011A000CC010020E4010020C0830010C4830010A3
:1011B00080B5154FBD4406F021F9FFF70DF9072062
:1011C000FFF744F9FFF7D8F9FFF7AEF9FFF77EF91B
:1011D0000620FFF799F90520FFF796F90B4B6846B3
:1011E00000930023019301F0BFFD80220021D20073
:1011F00002A805F0F1FF694602A801F0EDFD6A467C
:10120000002002A9FFF704FFF8FBFFFF007F0007A3
:10121000F0B54E465746DE464546E0B59FB0289CA1
:101220009A4623680E00994611000B924A4684465E
:1012300009905046636841435A43D2000A9362447E
:10124000C900012B00D1EFE048468B4691460B9B2D
:10125000099D434398460A9B0834DF000390299B6D
:10126000310028000193424653460094ED19FFF7E0
:10127000CFFF5E44A945F2D1039B99464B46042B10
:1012800000D1DCE0042B00DDE1E1022B01D100F014
:1012900050FC032B00D0C0E30B9929980B00844627
:1012A0000A9A53432133DB0063445B680792069339
:1012B000030084204000844663449A46D6000129F6
:1012C00001D000F0CBFD9B46099D0393AC19A619F4
:1012D000236862689946039B92461F685A6849468C
:1012E000381C904605F0FBFB51460490404605F043
:1012F000F6FB011C049805F0D8FB391C04905046FD
:1013000005F0EDFB4946071C404605F0E8FB011CD3
:10131000381C05F0CDFB3268716891468A465A4602
:1013200059461268496805908846101C494608923B
:1013300005F0D5FB5146071C404605F0D0FB011CCB
:10134000381C05F0B2FB0899071C504605F0C7FB96
:1013500049468246404605F0C2FB011C504605F056
:10136000A7FB04998046381C05F0A2FB059982462C
:10137000404605F09DFB039BFC210833039310239B
:101380009C46814689055046E34405F0A8FB011CB4
:10139000286805F08AFBFC2120608905484605F095
:1013A0009EFB011C686805F080FB391C6060049896
:1013B00005F07BFB069905F092FB4146071C05985A
:1013C00005F073FB069905F08AFB514680462868B4
:1013D00005F06EFB49462860686805F069FB6860A7
:1013E0002068414605F064FB30606068391C05F0F8
:1013F0005CFB70602068414605F057FB391C20609B
:10140000606805F055FB079B6060013B083507935A
:1014100008340836002B00D05AE71FB0F0BCBB469A
:10142000B246A946A046F0BD63463000A0C8A0C39E
:1014300076189A42F9D14B46042B00D022E70A9B3A
:10144000299A0493DC000B9B09329C46FF320392DD
:10145000DA0007921A0108925A006244D2000A92F6
:10146000299A5268002A00D0B1E3099D012B01D0CE
:1014700001F025F8AA46A346A244D344D9465C44C9
:10148000D346039B059306935B461B689846039BD4
:1014900041461A685F6892465A465046566805F0BB
:1014A0001EFB311C0790381C05F019FB011C079826
:1014B00005F0FBFA51460790301C05F010FB414641
:1014C000061C381C05F00BFB011C301C05F0F0FA63
:1014D0004A46126808909046069A116857688A46EC
:1014E000494650464E68414605F0F9FA311C0990CC
:1014F000381C05F0F4FA011C099805F0D6FA51469B
:101500000990301C05F0EBFA4146061C381C05F02A
:10151000E6FA011C301C05F0CBFA21680A908846D7
:1015200005990E684F68B2464146504605F0D7FA15
:1015300066680B90311C381C05F0D1FA011C0B9821
:1015400005F0B3FA51460B90301C05F0C8FA41463D
:10155000061C381C05F0C3FA011C301C05F0A8FA63
:101560002E680999071C301C05F09FFAB0460A9BAB
:101570006E68191C0C90301C9A4605F096FA099971
:101580000A90404605F094FA514628600D90301CB0
:1015900005F08EFA0B9E824607996860301C05F0B4
:1015A00087FA08990990381C05F082FA311C8046A8
:1015B000079805F07AFA391C061C089805F075FAA8
:1015C0000999071C0D9805F070FA4A4641461060CB
:1015D000504605F06AFA4A46039B50600833069A63
:1015E0000393059B103218330692059328680999D6
:1015F00005F05EFA41462860686805F059FA0C9BD0
:101600006860191C381C9A4605F052FA5B4618604F
:101610000A9B311C181C984605F047FA5B46391C9A
:101620005860504605F041FA41462060301C05F0F4
:101630003FFA08229446049B6060013B08350493FE
:10164000E344E1440834002B00D01DE7E5E6052B18
:1016500000D0E2E10A990B980A004243299BD2008C
:101660000933FF3306939B181C680C945C689B1825
:101670001A685B680D920E930A00CB0009990794D3
:101680008C469C4461469C44039161469C44049171
:1016900061469C440D00E246002A00DCBDE60128BC
:1016A00001D000F036FD6344159300239B46299B2F
:1016B00064460D33FF330593049B9A465B468B4685
:1016C0000493099B06981A685968049B0891C558A9
:1016D0000399A9464D680F68A846059D391C4846E0
:1016E000ED580A9205F0FBF94146061C281C05F04E
:1016F000F6F9011C301C05F0D8F94946061C404695
:1017000005F0EDF9391C8046281C05F0E8F957462C
:10171000011C404605F0CCF93F68049BB946059A88
:101720005D00069F51590B907859574688464946A7
:10173000109005F0D4F97F680F90391C404605F0F1
:10174000CEF9011C0F9805F0B0F910990F90381CD4
:1017500005F0C5F94946071C404605F0C0F9011CD3
:10176000381C05F0A5F91090049A5F469446069A35
:10177000654450593F6881465846059940684D591F
:101780008046391C484605F0AAF941461190281CAC
:1017900005F0A5F9011C119805F087F9494611904B
:1017A000404605F09CF9391C8046281C05F097F945
:1017B000011C404605F07CF92568049BA846069F5D
:1017C0009B00FF58059D3A1C676841461490101C09
:1017D0001292B946EF5805F082F94946051C381CAB
:1017E00005F07DF9011C281C05F05FF91299051C14
:1017F000484605F074F941468146381C05F06FF9FA
:10180000011C484605F054F9311C8046281C05F09F
:101810004FF90B99071C404605F04AF9291C8146EF
:10182000301C05F042F9414612900B9805F03DF945
:101830000F991390119805F03BF9149B061C109911
:10184000181C984605F034F91199051C0F9805F0FD
:101850002CF941460F90109805F027F9391C10908B
:10186000301C05F025F90A9B191C984605F020F953
:101870004B46099A49461060281C0B9305F018F94D
:10188000089905F015F9099A50600C9A381C111C3A
:10189000914605F024F9414605F00AF90D99804674
:1018A000301C05F01CF9011C404605F001F94946C1
:1018B00011900B9805F013F9089905F0F9F80D99B6
:1018C0008046281C05F00BF9011C404605F0F0F895
:1018D00007998046139805F002F90E9981461098F1
:1018E00005F0FDF8011C484605F0E2F80799149050
:1018F000129805F0F4F88022120694460E9984445A
:101900000F98E14605F0EBF8011C484605F0CDF8CC
:1019100014998146119805F0C8F8039B4946186050
:10192000404605F0C2F8039B14995860119805F0E1
:10193000BFF849462060404605F0BAF80D9A60604D
:10194000111C381C914605F0CAF80A9905F0B0F848
:101950000C9B071C191C301C984605F0C0F8011C94
:10196000381C05F0A5F84946061C0B9805F0B7F899
:10197000089905F09DF84146071C281C05F0AFF8B2
:10198000011C381C05F094F80799051C109805F007
:10199000A6F80E9B071C191C1398994605F09FF892
:1019A000011C381C05F081F849468046129805F064
:1019B00096F80799071C0F9805F091F8011C381C40
:1019C00005F073F84146071C301C05F071F85146CC
:1019D0000860391C281C05F06BF8514648604146E8
:1019E000301C05F062F85E46391C3060281C05F09A
:1019F0005CF80399049B0831039108218C46099AED
:101A000008330493159B0832083470600992E2444D
:101A1000E3449C4200D054E6FFE4299B0933FF33A2
:101A20000593299B1B6806934B46DD00280005F0B3
:101A3000B5FB0C90002800D1EFE40A9B002B00DCE2
:101A4000C1E1012B00D0BCE24B46002B00DCBAE127
:101A5000099E0C9C37002A003100200005F0C2FBD3
:101A6000230006CC06C74A46012A00D1ABE19C46BA
:101A7000002337006544089507930D9209930A9651
:101A80007E680025B0463B68BB461F1C079B9C46F2
:101A9000069B6544AB4200DCED1A059A2368944628
:101AA0009946EB0063441A6861685B680391484695
:101AB000111C04929A4605F012F85146061C039830
:101AC00005F00DF8011C301C04F0EFFF011C381C60
:101AD00004F0EEFF5B4651461860071C484604F0D0
:101AE000FEFF0399061C049804F0F9FF011C301C4A
:101AF00004F0DEFF011C404604F0DAFF5B4658604C
:101B0000089B08348046A342C0D10B9807998446AD
:101B1000099B0A9A614407910D9901330832099390
:101B20000A92994200D14EE10C9C170003CC03C2EB
:101B3000A6E70A9B299DDC00099B09359C460B9B67
:101B4000FF356444012B00D042E1099E2368994689
:101B50002B6849469B46636858469A466B68083529
:101B6000984604F0BCFF5146071C404604F0B7FFFE
:101B7000011C381C04F099FF5946071C504604F01C
:101B8000AEFF49468246404604F0A9FF011C50467C
:101B900004F08EFF391C8046306804F086FF206018
:101BA0007068414604F081FF60603068391C04F0C1
:101BB0007FFF41463060706804F07AFF0A9B7060D6
:101BC000013B083408360A93002BBFD125E4012BD2
:101BD00001D000F068FD099DA346AA46A244D34463
:101BE000D9465C44D346039B059306935B461B682A
:101BF0009846039B41461A685F6892465A4650468B
:101C0000566804F06CFF311C0790381C04F067FF25
:101C1000011C079804F049FF51460790301C04F05E
:101C20005EFF4146061C381C04F059FF011C301CA5
:101C300004F03EFF4A46126808909046069A1168E2
:101C400057688A46494650464E68414604F047FF69
:101C5000311C0990381C04F042FF011C099804F063
:101C600024FF51460990301C04F039FF4146061C00
:101C7000381C04F034FF011C301C04F019FF2168EB
:101C80000A90884605990E684F68B246414650460C
:101C900004F025FF66680B90311C381C04F01FFF10
:101CA000011C0B9804F001FF51460B90301C04F00E
:101CB00016FF4146061C381C04F011FF011C301CA5
:101CC00004F0F6FE2E680999071C301C04F0EDFEA6
:101CD000B0460A9B6E68191C0C90301C9A4604F0A2
:101CE000E4FE09990A90404604F0E2FE514628605D
:101CF0000D90301C04F0DCFE0B9E82460799686054
:101D0000301C04F0D5FE08990990381C04F0D0FE70
:101D1000311C8046079804F0C8FE391C061C089840
:101D200004F0C3FE0999071C0D9804F0BEFE4A4654
:101D300041461060504604F0B8FE4A46039B50608E
:101D40000833069A0393059B1032183306920593C5
:101D50002868099904F0ACFE41462860686804F0E0
:101D6000A7FE0C9B6860391C181C9A4604F09DFE67
:101D70005B4618600A9B301C191C984604F098FEBC
:101D80005B4651465860381C04F092FE311C2060BE
:101D9000404604F08AFE08229446049B6060013BA2
:101DA00008350493E344E1440834002B00D01DE7D8
:101DB000FFF733FB91460B9A013690460A9A454449
:101DC000B24200D00BE10C9805F0FAF9FFF725FBC1
:101DD000DF00BB4666462F002368626899463B6871
:101DE00090467A68191C48469246039304F077FEA1
:101DF0005146051C404604F072FE011C281C04F0EC
:101E000054FE5146051C484604F069FE4146814691
:101E1000039804F064FE011C484604F049FE291CA6
:101E20008046306804F041FE20607068414604F04E
:101E30003CFE60603068291C04F03AFE4146306088
:101E4000706804F035FE0A9B7060013B5F44083403
:101E500008360A93002BBFD1FFF7DFFA099DD04661
:101E6000AB46B3445C465E44D346CA000B010A92BB
:101E70000B93236862689A464346914642461B6824
:101E80005046191C5768039304F029FE391C04902E
:101E9000484604F024FE011C049804F006FE391C98
:101EA0000490504604F01BFE4946071C039804F0BA
:101EB00016FE011C381C04F0FBFD336872689A465C
:101EC0005B4691465A461B685268191C059050465D
:101ED0000392089304F003FE0399071C484604F09C
:101EE000FEFD011C381C04F0E0FD0399071C504660
:101EF00004F0F5FD49468246089804F0F0FD011C07
:101F0000504604F0D5FD391C8146049804F0D0FDFC
:101F100049468246059804F0CBFD0A9BFC219C466D
:101F20000B9BE0449C46039089055046E34404F033
:101F3000D6FD011C286804F0B8FDFC21206089054D
:101F4000039804F0CCFD011C686804F0AEFD391C58
:101F50006060049804F0A9FD069904F0C0FD4946AC
:101F6000071C059804F0A1FD069904F0B8FD514640
:101F70008146286804F09CFD03992860686804F095
:101F800097FD68602068494604F092FD3060606803
:101F9000391C04F08AFD70602068494604F085FD14
:101FA000391C2060606804F083FD079B6060013B82
:101FB0000835079308340836002B00D059E7FFF79F
:101FC0002CFA1A000C99DB008C460B99AC44514357
:101FD000002215001A008B464B4600269146002B26
:101FE00000DCE8E60E930C9B4A469946099BF700F5
:101FF00098464744644649463B00A846B446BA461C
:102000001800C0C8C0C19B188C42F9D1574666461B
:102010003B00A4464C4603CC03C30E9B4546012B14
:1020200000D1C7E600230D934B460F9363460893F8
:102030005B460795129613951092119300253B6805
:102040007E68BB460393371C079B9C46069B6544F2
:10205000AB4200DCED1A059A236894469946EB00E2
:1020600063441A6861685B6888464846111C04929C
:102070009A4604F034FD5146061C404604F02FFDFC
:10208000011C301C04F011FD011C039804F010FD2C
:102090005B46514618600390484604F020FD4146D7
:1020A000061C049804F01BFD011C301C04F000FD0C
:1020B000011C381C04F0FCFC5B465860089B08348B
:1020C000071CA342C0D1109A5F46944611996744F9
:1020D0008C46079A0D9B624407920E9A01330D932A
:1020E0009A4204D03B000F9C03CC03C3A6E70F9B8E
:1020F000129E9946089B139D9C46119B01369B4658
:102100000B9B109A98460A9B4544B34200D06DE75A
:1021100059E68446C3001A9303011B9343006344AA
:10212000DB001D9343011C9300239B460F930B93ED
:1021300008931993299B54460D33FF3305935B464F
:102140002F00099D10932B686A68109809931192CB
:10215000039B069A196816588A46B0465E68B146CF
:10216000059E315850468B46414604F0B8FC59460E
:10217000061C484604F0B3FC011C301C04F095FC1E
:1021800059461290504604F0AAFC4946061C4046A7
:1021900004F0A5FC011C301C04F08AFC049A089B86
:1021A0001168059E8A460699F658C95815908846C2
:1021B000516850468946414604F091FCB346061CDE
:1021C0005946484604F08BFC011C301C04F06DFCA1
:1021D00059461390504604F082FC4946061C40467E
:1021E00004F07DFC011C301C04F062FC3E6817907A
:1021F00006990B9AB2468E585046B0467E684146C4
:10220000B146059EB65804F06AFCB346061C594612
:10221000484604F064FC011C301C04F046FC59469E
:102220001490504604F05BFC4946061C404604F0FE
:1022300056FC011C301C04F03BFC0F9B06992668E1
:10224000C958B2468846059E6168F6588946189076
:102250004146504604F043FCB346061C59464846E6
:1022600004F03DFC011C301C04F01FFC5946061C08
:10227000504604F034FC49468246404604F02FFCA8
:10228000011C504604F014FC129B8046311C181CA3
:102290009A4604F00DFC159B83464146181C99464E
:1022A00004F006FC311C1290504604F0FEFB41463F
:1022B0001590484604F0F9FB16901499139804F011
:1022C000F7FB179B189E8146311C181C984604F09A
:1022D000EFFB14998246139804F0E7FB311C13902E
:1022E000404604F0E2FB49461490584604F0E0FBF7
:1022F000099E311C04F0DCFB51462860129804F062
:10230000D7FB119904F0D4FB0C9B59466860181C4C
:10231000984604F0E4FB311C04F0CAFB4946061C55
:102320000D9804F0DCFB011C301C04F0C1FB129979
:102330001790404604F0D3FB119904F0B9FB5146C5
:10234000061C0D9804F0CBFB011C301C04F0B0FB04
:1023500016991890079804F0C2FB1499061C0E9861
:1023600004F0BDFB011C301C04F0A2FB802680465B
:102370001599079804F0B3FB3606139986190E9841
:1023800004F0ADFB011C301C04F08FFB4146061C21
:10239000179804F08AFB039B311C1860189804F00E
:1023A00084FB039B41465860179804F081FB311C65
:1023B0002060189804F07CFB0D9A59466060101C50
:1023C000934604F08CFB099904F072FB0C9B494680
:1023D000061C181C984604F082FB011C301C04F0FB
:1023E00067FB12998146584604F079FB119904F075
:1023F0005FFB5146061C404604F071FB011C301C7B
:1024000004F056FB079B82461499181C9B4604F067
:1024100066FB0E9B1699061C181C984604F05FFB81
:10242000011C301C04F041FB1599061C404604F0C9
:1024300056FB13998046584604F051FB011C404658
:1024400004F033FB311C8046484604F031FB049A0B
:1024500041461060504604F02BFB049A311C50603A
:10246000484604F022FB41463860504604F01DFB0C
:102470001A99039B8C46049A199E78601098083329
:102480006044083201360492109003931996089B19
:102490001B980B9A84461D986344844662440B92B1
:1024A0001C9A089394460F9B083563440F930A9B2C
:1024B00008370834B34200D045E6FEF7AEFFAA461F
:1024C000A346A244D34456465F46039B5C4405930F
:1024D000069333689946039B48461A689346726888
:1024E000594692465A68099204F0F9FA51468046D4
:1024F000099804F0F4FA011C404604F0D6FA594653
:102500000B90504604F0EBFA09998046484604F0D7
:10251000E6FA011C404604F0CBFA3A680C90924669
:10252000069A11688B467968584609915168894620
:10253000514604F0D4FA09998046484604F0CFFA8F
:10254000011C404604F0B1FA59468046099804F04F
:10255000C6FA51468346484604F0C1FA011C584663
:1025600004F0A6FA216862688B46059991460B68CB
:102570004A680E905946181C92460D9304F0AFFA23
:1025800049460990504604F0AAFA011C099804F043
:102590008CFA0D990990484604F0A1FA59468146F3
:1025A000504604F09CFA011C484604F081FA2B685E
:1025B00041460D90181C9A4604F077FA6B680F900C
:1025C00099460E9B4846191C9B4604F06EFA4146FC
:1025D0000E90504604F06CFA5946824628604846F0
:1025E00004F066FA0B9983466860099804F060FA73
:1025F0000C9981460D9804F05BFA099980460B9876
:1026000004F053FA0D9909900C9804F04EFA4946DB
:102610000B90504604F049FA41463860584604F0A1
:1026200044FA079A039B9446634478600393089B9B
:10263000069A9C460A9B62449C4605992868614418
:1026400005914946069204F033FA414628606868CD
:1026500004F02EFA0F9B6860191C9B460B9B0835F3
:10266000181C9A4604F024FA099B3060191C9946FC
:102670000E9B0837181C984604F017FA51467060F4
:10268000584604F012FA41462060484604F010FA19
:10269000049B6060013B049308360834002B00D093
:1026A00017E7FEF7BAFE099BA1469A46A244039A91
:1026B000D1444C442700934655464E461C00059293
:1026C0002B689846039B40461A68596892466A6888
:1026D00089465146069204F002FA49460990069846
:1026E00004F0FDF9011C099804F0DFF9494609904E
:1026F000404604F0F4F906998046504604F0EFF99C
:10270000011C404604F0D4F9326871689146069184
:102710005A465946126849680B908A464846111C29
:102720000D9204F0DCF951468046069804F0D7F982
:10273000011C404604F0B9F951460C90484604F09B
:10274000CEF9069980460D9804F0C9F9011C40465F
:1027500004F0AEF93A687B689146059A0D901168CD
:1027600006935268484692460E9104F0B8F95146D5
:102770008046069804F0B3F9011C404604F095F930
:1027800051468046484604F0AAF9069981460E98BB
:1027900004F0A5F9011C484604F08AF92168069066
:1027A0008A460C99504604F080F961680E9089467B
:1027B0000D99484604F079F951460F900C9804F0B1
:1027C00077F9494620600C900D9804F071F9414664
:1027D00060600D90099804F06BF9069981460B989A
:1027E00004F066F941468246099804F05EF90699BC
:1027F00009900B9804F059F9494680460C9804F06A
:1028000054F9514630600D9804F04FF90799039B35
:102810008C4663440393089B059A9C460A9BE344B9
:102820009C467060206862444946059204F040F975
:1028300051462060606804F03BF9414660600E98A4
:1028400004F033F9099B2860191C9A460F9B083441
:10285000181C994604F02CF9414668600E9804F063
:1028600027F951463860484604F01FF9049B786008
:10287000013B0493083508360837002B00D01FE7CA
:10288000FEF7CBFDF0B557464E46DE46C0B5070015
:102890002130894684B0C000002B00D1C0E0002A5E
:1028A00000D17FE0196881427CD39246186053467C
:1028B0004A4638001F605A6003F0FEFD0290039103
:1028C000002F25DD4B46002B00D07BE05646093615
:1028D000FF36484603F0F0FD554A564B03F087FD9E
:1028E000029A039B03F069FD04000D0003F04AFE09
:1028F00003F02EFE29003060200003F055FE03F0A7
:1029000027FE01239C46E144706008364F45E0D124
:102910000298039908235344994603F021FE03F0DB
:1029200003FF042604000D003100380003F0D8FA3C
:1029300000292AD0022E3FD0042E13D1802300225A
:102940000226DB052000290003F090FD002815D1A8
:102950003100380003F0C4FA002916D00022364BAB
:10296000022E2DD00236300003F0A6FD02000B002F
:102970002000290003F07AFD0028E9D03E0038004D
:10298000310003F0ADFA0029D4D13800310003F052
:10299000A7FA4B460700C0C3012806DD08239C4662
:1029A000E144C1E7186000239A46504604B0E0BCF9
:1029B000BB46B246A946F0BD002203261E4BC1E726
:1029C0000326BFE784235B0053449B460026300068
:1029D00003F072FD164A174B03F009FD029A039BA0
:1029E00003F0EBFC04000D0003F0CCFD03F0B0FDA0
:1029F00080225B461206944618602B0063440193C4
:102A000000940098019903F0CFFD03F0A1FD5B460F
:102A1000586008239C460136E344B742D7D177E794
:102A200004F0BCFB8246002800D040E7BBE7C0466C
:102A3000182D4454FB2119C000000840F0B50400D3
:102A40000D00100083B0914208D001940834012396
:102A500001220094FEF7DCFB03B0F0BD0029FBD09F
:102A60002768FF00380004F099FB061EF4D001949B
:102A700008340123290001220094FEF7C9FB3A0023
:102A80003100280004F0AEFB300004F099FBE3E7CE
:102A9000F0B557464E464546DE461C000023E0B5DD
:102AA00083B00193013392461A0002408846914652
:102AB000034200D092E0451001AB00222800FFF74E
:102AC000E1FE6B005B19019ED80FC0183300401067
:102AD000C0000C33C018002C00D181E023682060B6
:102AE000834200D27AE05346002B00D176E0524672
:102AF0000C3296195E601A60EB00F6185346414698
:102B00009E60280001ABFFF7BDFEEB0F5B195B1069
:102B10009B46012D31DD534628009C6803F0CCFC18
:102B2000434606000F00002B2FD1A14601239C46EF
:102B3000E044404603F0C0FC32003B0003F03DFCA3
:102B40000022294B03F034FC284A294B03F04FFCA8
:102B500004000D0003F016FD03F0FAFC4B462900BB
:102B60001860200003F020FD03F0F2FC4B46586093
:102B700008239C46E144C345D8DC504603B0F0BC72
:102B8000BB46B246A946A046F0BDA04601239C46DE
:102B9000E144484603F090FC32003B0003F00DFC9A
:102BA0000022114B03F004FC104A124B03F01FFCEF
:102BB00004000D0003F0E6FC03F0CAFC43462900C4
:102BC0001860200003F0F0FC03F0C2FC434658609C
:102BD00008239C46E044D945D8DBCEE70020CDE76A
:102BE00004F0DCFA82467EE70000E03F182D4454F2
:102BF000FB2109C0FB210940F0B54546DE4657469A
:102C00004E46E0B5040000681500436887B0002B0D
:102C100006D007B0F0BCBB46B246A946A046F0BD00
:102C200062680768FFF70AFF6368FE0098461B6842
:102C30009A4643465B685046191C9B4603F038FF92
:102C4000AB19994628605946504603F02EFF4B4673
:102C50004A46186000236B605360FB0FDB195B1062
:102C60000593012FD5DD082343449946A368083E08
:102C70009B462C000123B044AD19DA4646464F4628
:102C8000083403937A683B6891463268191C93466E
:102C9000726858469046019303F00AFF414600903F
:102CA000484603F002FF59460490019803F0FDFEE8
:102CB00049460190404603F0FBFE53461B680290D4
:102CC0009B4653465B6859460198994603F007FFB7
:102CD00049468046029803F002FF011C404603F07B
:102CE000E4FE49468046019803F0F9FE59468146C4
:102CF000029803F0F4FE011C484603F0D9FE414659
:102D00008146009803F0D4FEFC21890503F0E7FE1C
:102D1000049B2060191C48469B4603F0C9FEFC2119
:102D2000890503F0DCFE41466060009803F0BDFEBB
:102D3000FC21890503F0D3FE59462860484603F07C
:102D4000B4FEFC21890503F0CAFE0822944668609F
:102D5000039B059A013303930837083EE244083485
:102D6000083D93428EDD54E7037842788178D21A89
:102D7000C37801325B1A0133534343607047C04646
:102D8000F0B54746CE4680B58BB003AC2200104B61
:102D9000802723CB23C223CB23C21B88002613808A
:102DA00026236B4499460B4B02AD984623782F702F
:102DB0006B702A0002233C2140460096013404F047
:102DC000A9FB4C45F2D10BB0C0BCB946B046F0BD32
:102DD0004086001080020020F0B557464E4645461A
:102DE000DE462123E0B587B004AC23700B78834620
:102DF00063704B788A46A3702223E3704B880027C8
:102E0000A38016236B44994680239846174E03AD42
:102E1000424623782A706B702A0002233C2130003E
:102E20000097013404F076FB4C45F1D153465B68C2
:102E30005D1C2800984604F0B1F940230400424686
:102E400059460370013004F0CDF92B0022003C21DB
:102E50003000009704F05EFB200004F0B1F907B0E9
:102E6000F0BCBB46B246A946A046F0BD8002002099
:102E7000F0B5DE4657464E464546E0B585B0782962
:102E80004DDC382A4BDC1C78002C48D00725D6179F
:102E90003540AA18D210D2010292294A0392294A37
:102EA00093462AE0303C092C40D8FF242240153AB2
:102EB0005C46D200A45C5A44A24654781779A146D5
:102EC00094785679A046D4789579A446D27901921F
:102ED0005446029A8A1884544C46821854704446C8
:102EE00094706446D470019C177156719571D471B9
:102EF0001C78083109B2002C11D001337829F7DC95
:102F00000326039D22002D5D3540022D01D1203A7C
:102F1000D4B22500413D192DC4D8403AC8E705B0C8
:102F2000F0BCBB46B246A946A046F0BD0022002533
:102F30000026002794469046914692460192C7E7A4
:102F40007D88001018850010094A10B59446402469
:102F5000830063441A68C0006240803414408022B9
:102F6000520113431C60034B9C466044416010BDFA
:102F700004C0014000400140074B80009C46604473
:102F80000368C90092000A435A400C231A40802368
:102F90005B0103431A60704704C00140084B800086
:102FA0009C466044002905D0802340229B010343B6
:102FB0001A607047C02340229B0103431A60F8E760
:102FC00004C001400123D022834012069362936122
:102FD000094A40219446830063441A68C0004A406D
:102FE000803111408022520113431960034B9C46EB
:102FF000052360444360704704C001400040014025
:10300000024B18688007C00F7047C04600C00640DA
:10301000EFF3108072B6034A1368002BFCD0BFF3A5
:103020005F8F70472C0100D0BFF35F8F0022024BEF
:103030001A6080F3108870472C0100D070B5EFF350
:10304000108C72B60D4D2B68002BFCD0BFF35F8F38
:103050000724CB08C618C05C01230C40A3401C0009
:103060000440034207D118433070BFF35F8F2C60D8
:103070008CF3108870BD100001F02CFB2C0100D0E7
:10308000F8B54746CE46884680B5EFF3108C72B649
:10309000214D2C68002CFCD0BFF35F8F9A422CD8B6
:1030A000D4080727055D061901241740BC402C42AF
:1030B0001FD007210127894609E0D408055D0619BC
:1030C0004C4639001440A1400C00294211D0013275
:1030D0009342F2D201204042BFF35F8F00220E4B99
:1030E0001A608CF3108800280FDBC0BCB946B046CC
:1030F000F8BD254310003570EEE7BFF35F8F002366
:103100002B608CF31088012040424346002BECD00A
:10311000089801F0DFFAC0462C0100D00021044BD2
:10312000044ABFF35F8F02C39342FAD17047C0468F
:10313000000100D0800100D0044A1078431CDBB2AB
:10314000172B00D9102313707047C046EC010020E4
:1031500001238340002904D0034A1360034A13600B
:103160007047034A1360FBE780E200E000E100E003
:1031700080E100E0024B10309B688000C05870472F
:1031800000ED00E070B50D00EFF3108672B60F4A47
:103190001368002BFCD0BFF35F8F0D4B10309B6882
:1031A00084001B590B4A934203D09D4201D001F089
:1031B000A9FA074B9B681D51BFF35F8FBFF35F8F69
:1031C0000022024B1A6086F3108870BD240100D0E3
:1031D00000ED00E0CD010010F0B5DE4657464E464A
:1031E0004546E0B50C0083B0EFF3108872B65D4A37
:1031F0001368002BFCD0BFF35F8F5B4B5B499A6871
:10320000030010339F00D5598D4239D0A5424AD0D2
:10321000574EAA1B2F2A33D801229246824091464C
:103220004846544A1268104001904846524A10607D
:10323000BFF35F8FEFF305829346002A35D09342A8
:1032400001D001F05FFA2A0053469A439068844205
:1032500008D175E04B005B189B00F3189868A042FA
:1032600034D01A00062151560029F3DA844253D093
:10327000019B002B26D04A46404B1A603D4B1A60FA
:10328000394B9B68DD51BFF35F8FBFF35F8F002227
:10329000344B1A6088F3108803B0F0BCBB46B246CA
:1032A000A946A046F0BD0D00EAE72A0053469A431E
:1032B00090688442D6D1062010561300002809DAFF
:1032C0000D0031E04A462C4B1A60D9E7062018560B
:1032D000002822DB42001118890074188A46A16870
:1032E0009960E179D971062161569971002925DB30
:1032F000A488F11A6405241554440919E024090529
:10330000490D24022143998013181D4A9B0011780E
:10331000F31899711070ABE713005946002914D1C6
:10332000FF3191711749918015490A789A71164AAF
:103330009B1B5B415A43120D0A7099E71349E2E760
:103340000620105613000028C4DA114A1149D21A77
:10335000083A5002400D014399800F4952080A4330
:10336000DA8085E7240100D000ED00E0CD010010F7
:10337000F001002000E100E080E100E080E200E0F8
:10338000961D002001BDFFFFAAAA000001BD00009C
:103390002A02002000F0FFFF00F8FFFF70B5EFF3F6
:1033A000058101240443EFF3108C72B6214A13689F
:1033B000002BFCD0BFF35F8F1F4B05001F4AED1A97
:1033C0006D416A43120D1E4D8900AE6852B27658A7
:1033D000A6421CD00621595691421CD012215956A2
:1033E000914222D01E215956914220D02A2159566D
:1033F0000324914210D0134B19781A708171BFF3D6
:103400005F8F00220B4B1A608CF3108870BDAB6885
:103410000D4C5C50EFE700246100091989005B182E
:10342000FF21997109499980E5E70124F4E7022415
:10343000F2E7C046240100D0F0010020AAAA000053
:1034400000ED00E0961D0020CD01001001BDFFFF42
:10345000054B064A1360064A136053609360D360BD
:1034600013615361936170478080808000E400E0C5
:1034700004E400E0024B9C4661448900016070470F
:103480004000003410B50400FFF756FE0100200094
:10349000FFF7F0FFFF232371BFF35F8F10BDC0461E
:1034A00010B50400FFF748FE01002000FFF7E2FF1F
:1034B000FF23A380BFF35F8F10BDC04683680B4816
:1034C00010B58446614462441201090159189B18E1
:1034D0005C684A680120944201D802D00020C0B242
:1034E00010BD1A680B689A42F9D8F7E7FFFFFF0F83
:1034F0000A4B1968EFF3108072B60A68002AFCD0F4
:10350000BFF35F8F1B68BFF35F8F00221A6080F3E9
:10351000108840BF002000217047C046681D002071
:10352000F8B5574645464E46DE46E0B598460CABE4
:103530001C780DAB1B78070091469A460568002C55
:1035400059D1AC7B002C3BD0660029683619033E6C
:1035500089194B78AB73002B00D1EB7300238B7070
:103560004B700B702D4BE218BB6812019B184A463A
:103570001A6042465A600A9A9A600B9ADA600023EF
:103580008B704B700B706B7B9B46002B26D0220000
:103590006B685946A86898475B465B005B442A689D
:1035A000033B002812D058469619B070D118D35C4E
:1035B000002B00D073705B460C706B735C450ED0B3
:1035C000F0BCBB46B246A946A046F8BDD3189C70D5
:1035D0009119925D002A1CD15B460B706C734A46B0
:1035E0004346387D00F0B2FB051E0AD10E9B002B2E
:1035F000E6D01D70E4E7660029683619033E891994
:10360000B0E75346002BF1D12100386800F0B6FD39
:10361000ECE75A705B460B706C73E0E7FFFFFF0F3F
:10362000F0B5DE4657464E4645460023E0B58BB022
:103630000893684B8200D45800239B46099000F001
:1036400025FB02000B006068EFF3108A72B6564645
:1036500001680029FCD0B246BFF35F8F21684F7B21
:103660008C46002F2ED0A5685B49A9467918090120
:10367000894449460868496805000E00AD1A9E4114
:10368000002E5FDD02000B00099800F05FFB0023B5
:103690000022994600230692079300239846636808
:1036A000BFF35F8F5A461A608AF310884346002B97
:1036B00012D10028C3D10BB0F0BCBB46B246A9461C
:1036C000A046F0BD002300229946002306920793EE
:1036D000002300209846E2E7089B49461802384339
:1036E000C047626805000E00EFF3108A72B61368D7
:1036F000002BFCD0BFF35F8F002E41DB2B00334348
:1037000002D02369002B56D12368D97B002905D02C
:103710001A68480041185218033A57709A7B002AD9
:1037200000D19F73DF73E268013FD35D0133D3554E
:103730005B4623616368BFF35F8F5A461A608AF362
:1037400010887CE7002E02D1002D00D09AE70021DE
:10375000604600F091FC4B461A685B68069207933E
:103760004B469B6898464B46DB689946E368DB19F5
:10377000013B1B7808931B020343236100208EE763
:103780002369002BC0D0069A079B8021521BB341AE
:1037900009068B4202D30122104B524200210491B0
:1037A0000131039149460191414620000297009161
:1037B000FFF7B6FEBCE700F069FA2A0033001218E2
:1037C0004B41802109068B42E8D30122034B524230
:1037D000E4E7C046540C0020FFFFFF0FFFFFFF7F10
:1037E00010B5144C6368002B04D00A211248FFF76F
:1037F00041FE10BD2300114A1021206800F058FB43
:10380000032000F037FA032000F008FB03200C49E6
:1038100000F056FAFFF790FC0A4B9C4603232375F1
:10382000D0231B061B6860446375074B80006060F3
:10383000DC60DAE738020020681D0020BD3400108B
:103840002136001040000034540C0020F0B55746DB
:103850004E464546DE46E0B585B0019310AB1B7879
:103860000600039300239A46984600927268EFF38D
:10387000108B72B61368002BFCD0BFF35F8F3568D6
:10388000AC7B002C00D16EE067002B683F19033F32
:10389000DB195A78AA73002A00D1EA73484AA118A2
:1038A000B2680901521800980199106051600E9990
:1038B00091600F99D16042469A705A701A706B7B72
:1038C0009946002B00D16BE022006B684946A8683E
:1038D00098474B465B004B442A68033B002856D070
:1038E0004846D719B870D118D35C002B00D07B7034
:1038F0004B460C706B734C4553D0F3681B19013B5E
:1039000018787368BFF35F8F42461A608BF3108894
:103910005346002B08D10002204305B0F0BCBB4643
:10392000B246A946A046F0BD039B002B46D00E9B95
:1039300000200F99984703000B433FD004000D1E51
:103940001ADA009A019B121BAB410092019380226C
:103950001206934204D301231A4C5B420093019454
:10396000039B9A4682E77368BFF35F8F1C608BF3FB
:10397000108801204042D0E700F088F98022001929
:1039800069411206009001919142E9D3E3E7D3180F
:103990009C70D119D25D002A00D05A704B460B7032
:1039A0006C73307D009A019B00F0D0F982460028AC
:1039B000A3D02100306800F0E1FB9EE70020ACE7D7
:1039C000FFFFFF0FFFFFFF7FF0B504000D0006268D
:1039D0007642F717C64636196F4100B584B08F425C
:1039E00014D811D000F052F932003B00121A8B416A
:1039F000002B15DC002B3ED02000290000F050F9F0
:103A000004B080BCB846F0BD8642EBD90026002742
:103A100000F03CF932003B00121A8B41002BE9DD2B
:103A2000002302930193154B3200009314483B008E
:103A3000FFF70CFF0028DFDB00239846BC46114A45
:103A4000114F7B6A9C4504D8B96A8E42D4D99C45F3
:103A5000D2D11168EFF3108072B60B68002BFCD046
:103A6000BFF35F8F1368BFF35F8F4146196080F328
:103A7000108820BFE5E7002ABED0D1E7F13400105E
:103A800038020020681D00200040054070B5040089
:103A90000D0000F0FBF88023001969411B069942D4
:103AA00002D3012002494042FFF78EFF70BDC0469D
:103AB000FFFFFF7F70B5060000F0E8F8FA2204006F
:103AC0000D00002330000021920002F0D1FF80237E
:103AD000001969411B06994202D301200249404264
:103AE000FFF772FF70BDC046FFFFFF7FF0B5EFF339
:103AF0000583CE46474680B505000C0085B0002BF7
:103B000012D02A4A0020536AA34203D3926A01309A
:103B1000AA4204D305B0C0BCB946B046F0BD1B1BD9
:103B20005A1E9341D8B2F5E7214E02930193214BDF
:103B30000200009330000B00FFF788FE031EE0DD5B
:103B400020BF7168EFF3108772B60A68002AFCD0B4
:103B5000BFF35F8FDAB29446FF2230681A40417B90
:103B600061450FD001688946510088464946904416
:103B7000414403398978002904D13269934209D13B
:103B8000316107E0F1681B0A8A18013A1278DBB24A
:103B90009A4207D07368BFF35F8F00221A6087F3E1
:103BA0001088AEE7614600F0E9FAF3E7004005400F
:103BB00038020020F1340010F0B5EFF30582D6464C
:103BC0004F4646461000C0B51038EFF3108872B665
:103BD000214C2368002BFCD0BFF35F8F0123190019
:103BE00081401E4D1F006963AA461D4D29601D4D71
:103BF0002E78AC463500C5402F402B4215D0534699
:103C00005F6A194B8500EB589F4218D36246174BE9
:103C10008E43EB581670BFF35F8F0022226088F34B
:103C20001088002B06D0984704E0BFF35F8F276011
:103C300088F31088E0BCBA46B146A846F0BD0C4BEC
:103C400092009C46624413681360BFF35F8F0023A9
:103C5000236088F31088EDE7280100D0004005407C
:103C60003C700540981D0020841D0020880B00201A
:103C7000D03F054010B5034B01001800024AFFF782
:103C8000DDF910BD941D0020BC820010034B596A61
:103C90000A00986A596A8A42FAD170470040054082
:103CA000064A536A9942FCD807D1044B02E05A6A8B
:103CB000914202D19A6A8242F9D37047004005408E
:103CC00070B504000D00EFF3108672B61A4A13683F
:103CD000002BFCD0BFF35F8F002D1BD02000FFF71F
:103CE00049FA164981420AD02000FFF74BFA012118
:103CF0002000FFF72DFA0123A340114A1360114B56
:103D0000A400E550BFF35F8F00220B4B1A6086F3CF
:103D1000108870BD0121A1400A4BA200D5500A4B6A
:103D200020001A788A4305491A70FFF755FA0021D6
:103D30002000FFF70DFAE5E7280100D0B93B00109D
:103D400038600540880B0020981D0020F0B54F46D4
:103D5000D6464646C0B507002B4C616A0D00A66AE0
:103D6000616AA942FAD18B4208D805D00120E0BC93
:103D7000BA46B146A846F0BDB242F7D9EFF3108A71
:103D800072B6224801680029FCD0BFF35F8F01257D
:103D9000BD401F491C4C8846097889462943C9B251
:103DA0008C46414660460870391D890065630A519A
:103DB0001849B8004350216A0020294219D0616A8D
:103DC0000800A66A616A8142FAD18B4219D801D1F2
:103DD000B24216D8CC450BD00B4B1F221D625D633F
:103DE00001233A4093400C4A136043464A461A70F6
:103DF0000120BFF35F8F0022044B1A608AF3108802
:103E0000B5E70020F5E7C04600400540280100D096
:103E1000981D0020841D002080E200E0EFF3108C4C
:103E200072B60A490B68002BFCD0BFF35F8F0123E9
:103E30008340074A0748136202789A430270BFF32F
:103E40005F8F00230B608CF310887047280100D02F
:103E500000400540981D002070B506000D001400BC
:103E600000291DD0002A12D073688068984762002C
:103E70006B0012195B193168033A033B002808D024
:103E80008A189570C818CB5C002B0BD104702800E1
:103E900070BDCB189C7088188A5C002A05D105700B
:103EA0002000F5E753700470F1E75A700570F7E7EA
:103EB00010B583600023CCB24373013342600473B6
:103EC0008373C4730068421C012C05D90133DBB233
:103ED000137003329C42F9D1FF230B405A00D318D0
:103EE000C01800230338437010BDC04670B50500EC
:103EF0000C1E07D0630001681B19033BCB185A78CE
:103F0000002A01D1200070BD500080180338091824
:103F100000204E784870210058702800FFF79CFF61
:103F2000310004002800FFF7E1FF0600002C20D03C
:103F30000028E7D0320021006B68A868984772001B
:103F4000630092191B192968033A033B002808D023
:103F50008A189470C818CB5C002B00D05370067080
:103F6000D0E7CB189E7088188A5C002A00D05A705F
:103F700004703400C6E7C046F0B557464546DE46F5
:103F80004E46E0B50D006F0001687F19033F040045
:103F9000C85D83B00192CA19002850D043001B1895
:103FA000033BCB185E78B446002E1AD1019E002E3A
:103FB00042D0E67B002E04D073009B19CB18033B44
:103FC0005D70A37B002B00D1A573E57300282FD172
:103FD0000023537003B0F0BCBB46B246A946A046CE
:103FE000F0BD72006244033A8A1851788846002175
:103FF000517089465970320001002000FFF72CFFF4
:1040000043468246002B07D05B0021684344033BB4
:10401000CB185A78002A16D1424651462000FFF7A5
:104020001BFF2168019BCA19002BC2D10028CFD0E9
:1040300043001B18033BCB1800219970C8E7019B74
:10404000002BB6D1C4E7500080180338091848780F
:10405000834648464870587041462000FFF7FCFEF2
:10406000594680462000FFF741FF414602002000EC
:10407000FFF7F2FE8046CFE7F0B557464546DE46ED
:104080004E46E0B583B00191457B04006F000068A7
:104090007F19033FC15DC219002952D04B005B1844
:1040A000033BC3185E78B446002E1CD1019E002E3F
:1040B00044D0E67B002E04D073009B19C318033B49
:1040C0005D70A37B002B00D1A573E573002931D16E
:1040D000002328005370617303B0F0BCBB46B246A6
:1040E000A946A046F0BD72006244033A8218507897
:1040F0008046002050708146587032002000FFF743
:10410000ABFE43468246002B07D05B002168434448
:10411000033BCB185A78002A17D14246514620005B
:10412000FFF79AFE019B01002068C219002BC0D145
:104130000029CDD04B005B18033BC31800209870BA
:10414000C6E7019B002BB4D1C2E7500080180338AA
:104150000918487883464846487058704146200000
:10416000FFF77AFE594680462000FFF7BFFE414622
:1041700002002000FFF770FE8046CEE770B5050014
:1041800000292CD0437B8B422ED04C000068641851
:10419000033C0419A278002A21D053009B18033B4A
:1041A000C25CC6188A4202D11BE0002A08D0530024
:1041B0009B18033BC3185A788A42F6D162785A702A
:1041C000002301222800A3706370FFF7D5FE697BEE
:1041D00002002800FFF740FE6873012000E0002085
:1041E00070BD63783370EBE701221900FFF7C4FE5E
:1041F000F2E7C04610B50C2082B000F0B7F9FEF728
:10420000FFFE002810D08B4B8B488B498B4A1860DF
:1042100059609860D960186159619861D9611862D4
:1042200059625A6202B010BD854CA06700F0A6F931
:104230000122844B1A60636C012BFCD10322824B58
:104240001A607F4A936B012BFCD1013301217F4A15
:104250007F480093043300F037F905237D4A00932B
:1042600001217D4800F030F97C4B5A68FF2A02D8C2
:10427000802252005A608022734B6E4C12011A60E9
:104280002169002907D0606901F052FE0130430026
:104290001B18033BFDD2E022704B714819680A409D
:1042A000026002221968514001320A400421026072
:1042B0009A681142FCD080216A4A0901116080226B
:1042C00052005A60684B2361684B5968FF2900D837
:1042D0005A60032201215B4B1A60644A93681942B9
:1042E000FCD0E02310680340614803601268032398
:1042F0004A40022113405D4A036093681942FCD092
:1043000080215C4B0901196080215B4B49005160A1
:1043100063615A4B5A68FF2A00D859608022584B73
:1043200012011A60E169002907D0606901F000FEFE
:10433000013043001B18033BFDD2E0234F4A1168B4
:104340000B4050490B6080214F4B090119608021BF
:10435000394B49005160E3614C4B5A68FF2A00D841
:10436000596080224A4B12011A60216A002907D045
:10437000606901F0DDFD013043001B18033BFDD2F5
:10438000E023424A11680B4042490B608021424BB6
:104390000901196080235B0053608022264BD20202
:1043A00023623E4B5968914200D25A6080223C4BB6
:1043B00012011A60616A002907D0606901F0B8FD36
:1043C000013043001B18033BFDD2E023334A116840
:1043D0000B4034490B608021334B09011960802365
:1043E000DB025360154B6362304B5A68FF2A02D8D8
:1043F000802252005A6080222D4B12011A60A1695E
:10440000002907D0606901F093FD013043001B18BB
:10441000033BFDD2E023254A11680B4025490B6080
:104420008021254B0901196080235B005360124BEA
:10443000A361F7E6E8070020006CDC021BB7000070
:10444000008000403CB0004030B00040002F685970
:1044500000800240008C864700C00240308000404F
:104460003090004030A00040001BB7003C8000406E
:104470003C9000403CA000404059730754800040ED
:1044800054B000405490004054A000406080004070
:1044900060B000406090004060A000406C80004030
:1044A0006CB000406C9000406CA000404880004020
:1044B00048B000404890004048A00040014B8000B8
:1044C000C0587047E8070020F8B5040022481E00D5
:1044D00017000D0001F02CFD0100380001F028FD4F
:1044E000069B36041B031E432368002B22DB1B4B59
:1044F0001B49E3185A1E93418022920194465B4265
:104500001B0B184A1B0363441360174A13601F00F8
:104510008A689743FBD1C022231D92011A432123AD
:104520002560A06013602368002BFCDA0823E66096
:104530001360F8BD3F2322681340AB42D7D1A36874
:104540001B051B0D8342D2D1EE22E368D202134039
:10455000B342CCD1EDE7C046001BB7000040FDBF21
:1045600000C0004000E0004000F000408023024A0C
:104570009B000343D362704700800540AA23064A8C
:104580001B0113602F230549D360054B1960536845
:10459000002BFCDA7047C0460040024000B0FA0031
:1045A000006002402C4B2D4A70B51A602C4A2D4BEE
:1045B0002D491A6014008B689C43FBD12B4D2C4E67
:1045C000B54208D2013E761BB60808CD98472300B5
:1045D0000134B342F9D1FFF70DFE264A214B1A6090
:1045E000214A9368DB43DB01DD09002BF9D140222E
:1045F000214B224C224E9A675A671A67DA66B442F8
:1046000008D223682000002B20D00834FEF748FF92
:10461000B442F6D31B4C1C4EC022B168200002F0FD
:10462000E1FDB460FEF77AFDFEF712FFFFF7D8F860
:10463000164C174EB44208D2013E361BB60808CCC1
:1046400098472B0001359E42F9D170BD0834FEF722
:1046500019FFB442D5D3DDE700E00040BFCDFBFE3B
:10466000FE7F3C0000F0004000C00040D00700206A
:10467000E0070020FFFFFF0100F00140C807002015
:10468000D00700200000002000ED00E0E00700203F
:10469000E407002000BEFDE7094A03001068002877
:1046A00005D00849C3188B4207D8136070470648E5
:1046B0000449C31810608B42F7D901204042F5E746
:1046C000E40B0020000004209C1D002010B5FFF723
:1046D000E1FFC0460FB400B5084883B002F01EFEEB
:1046E000049B002B07D005A91800019101F0A6FB3F
:1046F000034802F013FE0120FFF7CCFFE082001018
:10470000F082001010B50148FFF7E4FFF4820010BA
:104710009A4200D2885470477047C046F8B5574651
:10472000DE464E464546E0B599460A9B07009A4646
:104730000D9B884693460B9C9B073BD10C9B9C4250
:104740003DD21E1B0B9415000C005E442A004B4604
:10475000013521002020B847B542F7D1A0460B9C77
:10476000002C20D0454636195346321B013C185DBB
:1047700029004B46B847002CF6D12B00350098464F
:104780000D9B9B070FD55B46EC1A0C9BA3420AD9E5
:10479000464698462A004B46310020200134B8474F
:1047A00001354445F6D32800F0BCBB46B246A946C5
:1047B000A046F8BD16001500002CD3D1E0E7160086
:1047C000002CCFD11500EEE7F0B54F464646D64651
:1047D000C0B584B098460EAB1B7894469946129BA0
:1047E0000D9C109F119E9A0725D4002E65D1BC42C6
:1047F00021D201221A409246202C00D1E9E00C9AE5
:10480000551E302202E0202C00D17BE001342A55D5
:10481000A742F8D85246002A0DD0B4420BD20C9AC7
:10482000551E3022202C02D171E0202C2DD00134D5
:104830002A55B442F9D1DA063CD55A052ED4002CBB
:1048400028D10F9A102A00D1B6E0022A00D1BCE08C
:1048500030220C9C227001244A46002A65D15A0756
:1048600000D499E02B220C9D2A55013403930C9B14
:1048700062460093029643460194FFF74FFF04B04F
:10488000E0BCBA46B146A846F0BD2024DA06EDD514
:104890005A0503D4A74266D0B44264D00F9A102AB6
:1048A00071D0022A57D0202CE0D0220001343025CC
:1048B0000C9FBD54202CD9D0CEE7012215001D40FD
:1048C000AA461A4236D04A46002A4AD10C321A4227
:1048D00047D1BC42A1D2202C91D1202E17D8202420
:1048E000DA06C3D55A051BD4202F01D0202ED5D1EE
:1048F0001F220F9D102D6FD0022DD8D162250C9F45
:10490000BD54D0E75246002A79D0202EBDD92024AC
:10491000DA06ABD55A0503D4202FE9D0202EE7D0F4
:104920000F9A102AA2D12024A0E72D220C9D2A55EF
:1049300001349BE7BC4200D37DE7202C00D05EE72A
:10494000DA06F0D55A05EED4202F62D0202EEAD117
:1049500034001F22CDE7202C00D187E7220001344C
:10496000CCE7013EB5E7621E012CC2D10F9A102A96
:1049700000D06AE79A063BD558220C9C2270283A50
:104980006270022468E79A060ED4202CCBD07822DD
:104990000C9D2A55013486E71A0700D466E72022C9
:1049A0000C9D2A55013461E7202CBCD058250C9A67
:1049B00012191570013476E79A0608D558220C9C16
:1049C000227030226270022446E76032F7E77822D4
:1049D000F5E7002A83D1B3E7A21E013C9D0603D46C
:1049E00078250C9FBD5460E758250C9FBD545CE7AB
:1049F00078220C9C2270483A627002242CE7DA0676
:104A000000D433E75A058BD4202F00D044E71F226F
:104A10006FE73C001F226CE710B5002800D110BDE5
:104A200002F030FCFBE7C046F0B557464E4645461F
:104A3000DE46E0B599B08246894690460893229AB0
:104A4000239B1000190001F024FD002800D0CDE0C8
:104A5000229823990122D94B524201F015FD0028DA
:104A600000D0C3E0229823990122D54B524201F095
:104A7000FDFC002800D0B9E02298239900220023F1
:104A800001F0F4FC002800D0F1E1229E239F802356
:104A9000269ADB001A400D92269A1A4201D106236B
:104AA00024938023269A1B011A403B0093460996C3
:104AB000334300D0B3E0002A00D0C2E10023002439
:104AC0000A930B94002304250993259B0024AB42F1
:104AD00000D95C1B0223269A1A400C92269A134294
:104AE00003D06B426B415B421C40099B002B07D0FB
:104AF0000A9A0B9B3000390001F05FFC06000F00A2
:104B0000229823990022002301F0B0FC002803D052
:104B1000802109067B181F00269AAA4B0096019750
:104B20001340089E0493249B03940293424633004F
:104B30004946504600F0AAF90400002D67D0202015
:104B4000269A4946024013005A4253415B42621C76
:104B500018400A92330022004530D047099A6F1E50
:104B6000D317D4185C40D30F9B46002501E0202DBD
:104B700013D008AA94461F23200063440A2101355C
:104B80005E1901F0D5F93031317020000A2101F0B1
:104B9000CFF926000400092EE9D805230693002347
:104BA00004930A3303935B46089E029310AB0A9A60
:104BB000009349463300504605970195FFF704FEE0
:104BC0000C9A0400002A22D04246851A259AAA424D
:104BD0001DD9B046574616002200434649462020BC
:104BE0000135B8470134AE42F6D810E0269B424664
:104BF0000493259B49460393249B50460293229B92
:104C0000239C00930194089B00F040F904002000CD
:104C100019B0F0BCBB46B246A946A046F0BD6A4BEF
:104C200078009C46400D604401F046FC674A684BA2
:104C300001F0DDFB674A684B01F0BAFB674A3B03B2
:104C40001B0B1A4304000D0009981100644B00224D
:104C500001F0A9FB634A644B01F0C9FB02000B00A1
:104C60002000290001F0A4FB01F03EFC099001F0B6
:104C700023FC5E4A5E4B04000D0001F0B8FB0022ED
:104C80005C4B01F095FB01F02FFC5B4A5B4B29006C
:104C90000C90200001F0ABFB04000C980D0001F01B
:104CA0000BFC574A574B01F0A2FB02000B002000FF
:104CB000290001F078FB04000D0002000B000A94AB
:104CC0000B9501F094FB04000D000A980B9902006B
:104CD0000B0001F06DFB00220E900F914A4B20005B
:104CE000290001F06AFB0022484B01F061FB020041
:104CF0000B002000290001F060FB0022444B01F072
:104D000057FB02000B002000290001F056FB0A9A15
:104D10000B9B0D0080210400C905002001F043FB1E
:104D200002000B002000290001F042FB02000B00F2
:104D30000E980F9901F041FB0022284B01F038FB3F
:104D4000344B0C9C9C4664442305002201F04FFB2D
:104D500004000D0002000B00300039000A940B958E
:104D600001F084FB00285DD123002A00C6250999A3
:104D700063318D42AD4159466D420435002900D161
:104D8000A3E6134363D030003900234A234B01F0DC
:104D900073FB002807D0002230003900204B01F0BF
:104DA00065FB002853D1249B002B00D18DE60D9B81
:104DB0005A1E9341249AD31A249386E6FFFFEF7F6D
:104DC000FFFFEFFFFFF7FFFF01FCFFFFFB799F50A5
:104DD0001344D33FB3C8608B288AC63F0000F03F1E
:104DE0000000F83F61436F63A787D23F71A3790941
:104DF0004F930A400000E03F1655B5BBB16B02402F
:104E0000EF39FAFE422EE63F00002C40000024401D
:104E100000001840FF0300002D431CEBE2361A3F50
:104E200080842E41099B0022013B09932000164BF0
:104E3000290001F0C2FA0A00010003000A910B9256
:104E400094E7002300240A930B9400230993249AE7
:104E5000099B9A4214DDD31A013B24938023269A9E
:104E6000DB001A4300230025269209932DE68022B9
:104E700012069446229B1E00239B63441F0006E6F5
:104E800000232493EAE7C04600002440F0B54546DD
:104E9000DE464E465746E0B595B08B46904699465D
:104EA0001E9A1F9B0A9019001000209D01F0F1FA34
:104EB000002800D0B0E11E981F990122C74B524232
:104EC00001F0D4FA002800D037E11E981F99012282
:104ED000C34B524201F0D8FA002800D0A7E01E9838
:104EE0001F990022BF4B01F0CFFA002800D088E0C4
:104EF0001E981F990022BC4B01F0B8FA002800D080
:104F00007FE01E981F990022002301F0AFFA0028CD
:104F100000D0FAE000230B938023229C229ADB002E
:104F20001C401A4200D102E1092D00D87CE106A9FB
:104F30008C462C00172200233021093C62440133A7
:104F4000D154EF1A202B00D132E1A342F7D1002235
:104F5000A44B069207931E981F9901F0C5FA05000D
:104F600001F0AAFA02000B001E981F9901F01BFA2B
:104F7000069A079B01F03BFA0890099101F0D8FAD4
:104F8000060001F095FA02000B000898099901F05B
:104F90000AFA0022954B0890099101F075FA002851
:104FA00000D1D2E00136300001F082FA069A079B68
:104FB00001F062FA002801D000260135AA46002F30
:104FC00000D098E0280001F077FA02000B001E984C
:104FD0001F9901F0E8F9854B002206000F0001F04F
:104FE00045FA0CAB9A46002845D100223000390022
:104FF0007E4B01F049FA00283DD1EB073BD5013546
:1050000039E0229B42460493219B594603930A9818
:105010001E9B1F9C0295009301944B46FFF704FDD5
:1050200015B0F0BCBB46B246A946A046F0BD229BD7
:105030005B0767D403226E4B229901920391219959
:105040000291009342464B4659460A98FFF766FB89
:10505000E6E706AA94461723280063440A21013490
:105060001E1900F03DFF3031280031700A2100F098
:1050700037FF051E76D0202CEBD10323229A134054
:10508000012B1DD1219B002B1AD00B9B002B00D094
:10509000BBE0229A0C33134200D0B6E0219BA3421E
:1050A00000D887E006AB9C4617223023624404E018
:1050B0002199013413558C4259D0202CF8D1202449
:1050C000229B01940393219B02935346B9E706AABE
:1050D000944617230A216344300001341D1900F05F
:1050E00027FF3031297030000A21013F00F020FFF6
:1050F000092E46D90600202CE9D155460CAB2024B8
:105100009A46B8E704223B4B96E71E9A1F9B002065
:10511000002101F048F901230B938023229C229A5D
:10512000DB001E901F911C401A4200D0FCE60022BA
:10513000314B0627069207930DE7229B0393219B91
:105140000293042301932D4B7BE7002208980999D1
:10515000264B01F08BF9002800D02FE7002E4FD10D
:1051600001362BE70323229A1340012B66D0202C13
:10517000A6D00B9B002B1FD02D2352461355013474
:105180009EE75546202CB9D030233A19002F08D07D
:10519000172006A9013409180B55202CAED09442D3
:1051A000F6D10CAB9A462E2352461355013462E7D2
:1051B0002024CCE6202C83D0229B5B0708D4229BA2
:1051C0001B0700D47CE7202352461355013477E7B0
:1051D0002B2352461355013472E7C046FFFFEFFF01
:1051E000FFFFEF7F65CDCD4165CDCDC10000E03F34
:1051F000088300100083001080842E41108300106B
:10520000F30700D4DAE60136D8E6219B013B21936F
:10521000A34200D946E7AAE7229B0393219B02936E
:1052200003230193074B0CE7074BEA009B185C68CC
:105230001B682F000693079400248CE6219B002B0B
:1052400095D022E70C830010F8870010F0B5574680
:10525000DE464E464546E0B5A5B01F002E9B914662
:105260000D93CA4ACA4B82468B461A60002900D168
:1052700029E2002338789846002800D12BE2C54B5C
:1052800044460C93C44B55464E460E930AE0631CAD
:105290009846220033005946A847444638780028EB
:1052A00000D187E001372528F1D108239A46043B35
:1052B0009946023B9846013B00229C460B94387865
:1052C000791C0300203BDBB2102B03D80C9C9B0005
:1052D000E3589F460300303B0B9C0B92092B3AD9B5
:1052E000002398462A2800D1DDE000239A462E2884
:1052F0004BD00300683BDBB2122B1ED80E9A9B00EA
:10530000D3589F4663460F001A43D8E743460F0021
:105310001A43D4E74B460F001A43D0E710230F007F
:105320001A43CCE753460F001A43C8E780235B00BB
:105330000B9A78781A430B9201310F0067284FD8E7
:105340002428A4D90300253BDBB2422B9FD89349E4
:105350009B00CB589F46002398460B9B47469C4694
:1053600000E00131BB00DB195B001F180878303FFB
:105370000300303B092BF4D963460B930023B84656
:105380009A460F0001312E28B3D180200B9AC0001D
:1053900002430B9230225242944678780B008444A8
:1053A0006246092A00D8AAE12A2800D1B9E10F00F3
:1053B00001319EE7A046AA46B146C84503D3012362
:1053C0005B424B4498464B46424659460020D047E4
:1053D000200025B0F0BCBB46B246A946A046F0BDB1
:1053E00001006939C9B20F2900D950E701238B4068
:1053F0009C466B4B994663464A4613400F93624660
:105400004B461A4200D068E10A2956D0072900D03D
:105410003DE70D9B02CB9846002900D092E10B9B03
:1054200010211A008A431000113108438146802060
:105430001A00C0000240110003421CD114AB9C466C
:105440001F220F2362440D959C4615000F9B0B9461
:1054500002E0202B0CD0110064460C4020003730B5
:10546000092C00D807380133E8540A090F29F0D86D
:105470000B9C0D9D0F934B460822069353460592B5
:1054800008320392002204930F9B029201931CABFB
:1054900022000093594633002800FFF795F9434650
:1054A00004000D93FAE60D9B04CB9046002A79DBAD
:1054B00078780D930F00013117E70D9B02CB149301
:1054C0000B789C4618005346002B00D134E100288D
:1054D00015D05346013B013399460D940B9C8944EA
:1054E0004A460B00A14601E0934203D05C780133A9
:1054F000002CF9D14A465B1A0D9C0B920F93802326
:10550000DB0099460B9A13400D934B461A4204D088
:105510000F9B534501D953460F93022399460B9A8B
:1055200013400B934B46134200D1F5E16346002B29
:1055300000D1D6E10D9B002B00D182E10B1BD1469F
:1055400031009A463B00A1442E005F464D462200A2
:105550009B46894609E04B463900541CB0475346E8
:10556000185D002800D192E122009542F3D14B460C
:105570005A46A946BB46350017001E004C460B9BF9
:10558000002B00D0ADE1149B0D9387E64D52001027
:10559000E80B00205C860010A0860010EC8600104E
:1055A000419000000B9A283802430B924246524227
:1055B000787890460F000D93013196E678786C2844
:1055C00000D15DE180230B9A5B001A430B920131FD
:1055D000B3E680239B00ABE67878682800D148E1E9
:1055E00080230B9A01311A430B92A6E6672800D15B
:1055F000B2E0472800D11AE1452800D11CE10B9AFE
:105600000721049242460D9B0392073352468B4377
:10561000190002920CC92800009201930D912200FA
:1056200033005946FFF700FA040037E6462800D158
:105630008DE00B9A0721049242460D9B039207339B
:1056400052468B43190002920CC928000092019324
:105650000D91220033005946FFF718FC04001DE6A7
:10566000631C98462200330059462520A84744462B
:1056700014E60D9B04330F93631C99460B9B9A070A
:1056800000D40AE10D9B2200187859463300A84740
:1056900043464444012B00D86FE1B0462E0025005C
:1056A0004C46B9465F46220043460134390020206B
:1056B000B047AC42F7D12C00BB4635004F464646BA
:1056C0000F9B0D93EAE5D64B38789A46002398460F
:1056D000002800D0D3E500246FE66F2842D000D820
:1056E000FDE11023782800D19BE00B9A9A430B929E
:1056F0000A239C46002314930A330F9338E057463D
:105700000B9AB900C919490001330F181878303FB6
:10571000010030390929F4D9BA460B921F00591CEF
:10572000E7E50D9BB87804CB0237D143C9170A408F
:1057300092460D93791CDCE5002800D1DFE60223B8
:105740005B42C8E621200B9A0243914676E620236D
:105750000B9A1A430B926CE780230B9A1B011A4396
:105760000B924CE708239C460023149308330F93B5
:105770000B9880230200DB001A401100020018423F
:1057800000D080E00C239A431000802302009B008D
:105790001A400B92184200D0F1E0802302005B0017
:1057A0001A4091460D9A04321492184200D0C3E276
:1057B000430600D5D7E0030600D421E30D9B1B88E8
:1057C0000993002B00D02DE110339843002900D11C
:1057D00028E10023994643460593534604930F9BC3
:1057E00006900393002302934B4601931CAB2200C7
:1057F0000093594633002800FEF7E6FF0400C2E696
:10580000582809D0622800D0E3E202239C460023F6
:10581000149302330F93ABE720230B9A1A430B9296
:10582000103B9C460023149310330F93A0E7802372
:105830000B9A1B011A430B9220230B9A1A430B92CB
:10584000DDE60B1B9A460F9B99463B0037005E46F0
:105850009B4622003B003100A84753460134185DA7
:105860000028F6D14B460F935B46B3463E001F001F
:1058700085E6C0230B9AB8781A430B92F91C5CE5B5
:10588000C0239B00F6E70D239A4310007DE75B469B
:105890003500BB464E461F0071E64346012B66D9D4
:1058A000631E434432002E001D003B00A2465F46AB
:1058B00091469B4622004B46013439002020B047D8
:1058C000AC42F7D15B463500BB464E46A146544636
:1058D0001F000D9B4A461878594633004444A84798
:1058E000EEE60F9BA146984500D84CE64444E41AE6
:1058F000B0462E0025004C46B9465F46220043467E
:10590000013439002020B047AC42F7D12C00BB460F
:1059100035004F46464636E60F98804500D873E27C
:105920004346E218131A32002E001D003B00914638
:105930005F469B460F9122004B46013439002020E0
:10594000B047AC42F7D15B46BB461F0043460F99B8
:1059500001330F930B7835009C464E466046002875
:1059600000D0E7E50FE60D9B1B78099329E70D9B17
:105970002200187859463300A8474C46A0E60D9AF5
:10598000FA3BFF3B07329A430133994691444B4619
:105990000D931368526815921A4306D11032904342
:1059A00000220992002900D083E06122810600D5FF
:1059B0004122D2B20A9214AA91460A9A00210A3AC6
:1059C0000B9242461792524618925A46B246099195
:1059D0001E001F31149B4944BB4616941A9500249F
:1059E000674698468946159D19901B920AE0303209
:1059F000D2B24B4601341A55A8454CD0202C4CD07D
:105A000006000D003A0000233000290000F0CEFA15
:105A1000D2B2092AEBD90B9B9C466244D2B2E8E78A
:105A2000194700106123820600D54123DBB20A3BEF
:105A30000B93434614A91F228C4615935346624488
:105A4000B2460D9417974C468046A9461700099D0B
:105A50000F9E169308E03033DBB201343B55B5425C
:105A60000ED3202C0CD005003100280000F060FA85
:105A7000CBB20929EFD90B9A94466344DBB2ECE729
:105A8000159B40469846169B4D465646A1469A465B
:105A90000D9C179F9FE6B742B0D9179B5646984674
:105AA000189B5F469A461B9B09949B46169C199827
:105AB0001A9D43460593534604930F9B0690039308
:105AC00000230293099B01931CAB220000935946CB
:105AD00033002800FEF778FE0400FFF7DFFB1023F9
